{
  "contractName": "DominantAssuranceContract",
  "abi": [
    {
      "constant": true,
      "inputs": [],
      "name": "entrepreneur",
      "outputs": [
        {
          "name": "",
          "type": "address"
        }
      ],
      "payable": false,
      "stateMutability": "view",
      "type": "function"
    },
    {
      "constant": true,
      "inputs": [],
      "name": "totalPledges",
      "outputs": [
        {
          "name": "",
          "type": "uint256"
        }
      ],
      "payable": false,
      "stateMutability": "view",
      "type": "function"
    },
    {
      "constant": true,
      "inputs": [],
      "name": "pledgesCount",
      "outputs": [
        {
          "name": "",
          "type": "uint256"
        }
      ],
      "payable": false,
      "stateMutability": "view",
      "type": "function"
    },
    {
      "constant": true,
      "inputs": [
        {
          "name": "",
          "type": "address"
        }
      ],
      "name": "pledgeBalance",
      "outputs": [
        {
          "name": "",
          "type": "uint256"
        }
      ],
      "payable": false,
      "stateMutability": "view",
      "type": "function"
    },
    {
      "constant": true,
      "inputs": [],
      "name": "pledgesGoal",
      "outputs": [
        {
          "name": "",
          "type": "uint256"
        }
      ],
      "payable": false,
      "stateMutability": "view",
      "type": "function"
    },
    {
      "inputs": [
        {
          "name": "lengthOfPledge",
          "type": "uint256"
        },
        {
          "name": "_goal",
          "type": "uint256"
        },
        {
          "name": "_refundPercentage",
          "type": "uint8"
        },
        {
          "name": "_beneficiary",
          "type": "address"
        }
      ],
      "payable": true,
      "stateMutability": "payable",
      "type": "constructor"
    },
    {
      "constant": false,
      "inputs": [
        {
          "name": "amount",
          "type": "uint256"
        }
      ],
      "name": "pledge",
      "outputs": [],
      "payable": true,
      "stateMutability": "payable",
      "type": "function"
    }
  ],
  "bytecode": "0x608060405260405160808061065d83398101806040528101908080519060200190929190805190602001909291908051906020019092919080519060200190929190505050336000806101000a81548173ffffffffffffffffffffffffffffffffffffffff021916908373ffffffffffffffffffffffffffffffffffffffff16021790555080600760006101000a81548173ffffffffffffffffffffffffffffffffffffffff021916908373ffffffffffffffffffffffffffffffffffffffff1602179055508260018190555062015180840242016004819055508160ff1660058190555034600660008060009054906101000a900473ffffffffffffffffffffffffffffffffffffffff1673ffffffffffffffffffffffffffffffffffffffff1673ffffffffffffffffffffffffffffffffffffffff168152602001908152602001600020819055506000600381905550505050506104f9806101646000396000f300608060405260043610610078576000357c0100000000000000000000000000000000000000000000000000000000900463ffffffff168063054f381b1461007d5780637326c9c0146100d45780639f3d391e146100f4578063d4543c3c1461011f578063d8ae8b531461014a578063f3ee0f01146101a1575b600080fd5b34801561008957600080fd5b506100926101cc565b604051808273ffffffffffffffffffffffffffffffffffffffff1673ffffffffffffffffffffffffffffffffffffffff16815260200191505060405180910390f35b6100f2600480360381019080803590602001909291905050506101f1565b005b34801561010057600080fd5b506101096104a3565b6040518082815260200191505060405180910390f35b34801561012b57600080fd5b506101346104a9565b6040518082815260200191505060405180910390f35b34801561015657600080fd5b5061018b600480360381019080803573ffffffffffffffffffffffffffffffffffffffff1690602001909291905050506104af565b6040518082815260200191505060405180910390f35b3480156101ad57600080fd5b506101b66104c7565b6040518082815260200191505060405180910390f35b6000809054906101000a900473ffffffffffffffffffffffffffffffffffffffff1681565b60006004544210151561026c576040517f08c379a00000000000000000000000000000000000000000000000000000000081526004018080602001828103825260148152602001807f5468652063616d706169676e206973206f76657200000000000000000000000081525060200191505060405180910390fd5b81341415156102e3576040517f08c379a00000000000000000000000000000000000000000000000000000000081526004018080602001828103825260178152602001807f54686520616d6f756e7420697320696e636f727265637400000000000000000081525060200191505060405180910390fd5b60646005548115156102f157fe5b0482029050600660008060009054906101000a900473ffffffffffffffffffffffffffffffffffffffff1673ffffffffffffffffffffffffffffffffffffffff1673ffffffffffffffffffffffffffffffffffffffff168152602001908152602001600020548111156103c257600660008060009054906101000a900473ffffffffffffffffffffffffffffffffffffffff1673ffffffffffffffffffffffffffffffffffffffff1673ffffffffffffffffffffffffffffffffffffffff1681526020019081526020016000205490505b80600660008060009054906101000a900473ffffffffffffffffffffffffffffffffffffffff1673ffffffffffffffffffffffffffffffffffffffff1673ffffffffffffffffffffffffffffffffffffffff1681526020019081526020016000206000828254039250508190555080600660003373ffffffffffffffffffffffffffffffffffffffff1673ffffffffffffffffffffffffffffffffffffffff16815260200190815260200160002060008282540192505081905550816002600082825401925050819055506003600081548092919060010191905055505050565b60025481565b60035481565b60066020528060005260406000206000915090505481565b600154815600a165627a7a723058208f17cfc668b45a8a8b253bc62d9fec1f0fff5172e220b642caa9ab631a656c3d0029",
  "source": "pragma solidity ^0.4.2;\n\ncontract DominantAssuranceContract {\n    address public entrepreneur;\n    uint256 public pledgesGoal;\n    uint256 public totalPledges;\n    uint256 public pledgesCount;\n    uint256 pledgeDeadline;\n    uint256 refundPercentage;\n    mapping(address => uint256) public pledgeBalance;\n    address beneficiary;\n\n    constructor(uint256 lengthOfPledge, uint256 _goal, uint8 _refundPercentage, address _beneficiary) public payable {\n        entrepreneur = msg.sender;\n        beneficiary = _beneficiary;\n        pledgesGoal = _goal;\n        pledgeDeadline = now + (lengthOfPledge * 1 days);\n        refundPercentage = _refundPercentage;\n        pledgeBalance[entrepreneur] = msg.value;\n        pledgesCount = 0;\n    }\n\n    function pledge(uint256 amount) public payable {\n        require(now < pledgeDeadline, \"The campaign is over\");\n        require(msg.value == amount, \"The amount is incorrect\");\n        //require(msg.sender != owner,)\n\n        uint256 payout = amount * (refundPercentage / 100);\n        if (payout > pledgeBalance[entrepreneur]) {\n            payout = pledgeBalance[entrepreneur];\n        }\n\n        pledgeBalance[entrepreneur] -= payout;\n        pledgeBalance[msg.sender] += payout;\n        totalPledges += amount;\n        pledgesCount++;\n    }\n\n}\n",
  "sourcePath": "/home/jim/Documents/Programming/Provide/contracts/DominantAssuranceContract.sol",
  "compiler": {
    "name": "solc",
    "version": "0.4.24+commit.e67f0147.Emscripten.clang"
  },
  "schemaVersion": "2.0.0",
  "updatedAt": "2018-06-29T12:34:30.763Z"
}