{
  "contractName": "DominantAssuranceContract",
  "abi": [
    {
      "constant": true,
      "inputs": [],
      "name": "active",
      "outputs": [
        {
          "name": "",
          "type": "bool"
        }
      ],
      "payable": false,
      "stateMutability": "view",
      "type": "function"
    },
    {
      "constant": true,
      "inputs": [],
      "name": "entrepreneur",
      "outputs": [
        {
          "name": "",
          "type": "address"
        }
      ],
      "payable": false,
      "stateMutability": "view",
      "type": "function"
    },
    {
      "constant": true,
      "inputs": [
        {
          "name": "",
          "type": "address"
        }
      ],
      "name": "pledgerBalance",
      "outputs": [
        {
          "name": "",
          "type": "uint256"
        }
      ],
      "payable": false,
      "stateMutability": "view",
      "type": "function"
    },
    {
      "constant": true,
      "inputs": [],
      "name": "refundPercentage",
      "outputs": [
        {
          "name": "",
          "type": "uint256"
        }
      ],
      "payable": false,
      "stateMutability": "view",
      "type": "function"
    },
    {
      "constant": true,
      "inputs": [],
      "name": "pledgeAmount",
      "outputs": [
        {
          "name": "",
          "type": "uint256"
        }
      ],
      "payable": false,
      "stateMutability": "view",
      "type": "function"
    },
    {
      "constant": true,
      "inputs": [],
      "name": "pledgeCount",
      "outputs": [
        {
          "name": "",
          "type": "uint256"
        }
      ],
      "payable": false,
      "stateMutability": "view",
      "type": "function"
    },
    {
      "constant": true,
      "inputs": [],
      "name": "pledgeDeadline",
      "outputs": [
        {
          "name": "",
          "type": "uint256"
        }
      ],
      "payable": false,
      "stateMutability": "view",
      "type": "function"
    },
    {
      "constant": true,
      "inputs": [],
      "name": "pledgeCountGoal",
      "outputs": [
        {
          "name": "",
          "type": "uint256"
        }
      ],
      "payable": false,
      "stateMutability": "view",
      "type": "function"
    },
    {
      "inputs": [
        {
          "name": "_pledgeCountGoal",
          "type": "uint256"
        },
        {
          "name": "_pledgeAmount",
          "type": "uint256"
        },
        {
          "name": "_refundPercentage",
          "type": "uint256"
        },
        {
          "name": "_campaignLength",
          "type": "uint256"
        }
      ],
      "payable": false,
      "stateMutability": "nonpayable",
      "type": "constructor"
    },
    {
      "constant": false,
      "inputs": [
        {
          "name": "amount",
          "type": "uint256"
        }
      ],
      "name": "pledge",
      "outputs": [],
      "payable": true,
      "stateMutability": "payable",
      "type": "function"
    },
    {
      "constant": false,
      "inputs": [],
      "name": "claimFunds",
      "outputs": [],
      "payable": false,
      "stateMutability": "nonpayable",
      "type": "function"
    },
    {
      "constant": false,
      "inputs": [],
      "name": "getRefund",
      "outputs": [],
      "payable": false,
      "stateMutability": "nonpayable",
      "type": "function"
    }
  ],
  "bytecode": "0x608060405234801561001057600080fd5b50604051608080610a5883398101806040528101908080519060200190929190805190602001909291908051906020019092919080519060200190929190505050336000806101000a81548173ffffffffffffffffffffffffffffffffffffffff021916908373ffffffffffffffffffffffffffffffffffffffff1602179055506001600760006101000a81548160ff021916908315150217905550826003819055508360028190555081600481905550603c8102420160068190555050505050610978806100e06000396000f3006080604052600436106100af576000357c0100000000000000000000000000000000000000000000000000000000900463ffffffff16806302fb0c5e146100b4578063054f381b146100e35780632801ed261461013a5780634b77ae1414610191578063517b9b55146101bc5780637326c9c0146101e7578063ac30777314610207578063b2d5ae441461021e578063c6d6c18314610235578063d95c19ad14610260578063e02ac0131461028b575b600080fd5b3480156100c057600080fd5b506100c96102b6565b604051808215151515815260200191505060405180910390f35b3480156100ef57600080fd5b506100f86102c9565b604051808273ffffffffffffffffffffffffffffffffffffffff1673ffffffffffffffffffffffffffffffffffffffff16815260200191505060405180910390f35b34801561014657600080fd5b5061017b600480360381019080803573ffffffffffffffffffffffffffffffffffffffff1690602001909291905050506102ee565b6040518082815260200191505060405180910390f35b34801561019d57600080fd5b506101a6610306565b6040518082815260200191505060405180910390f35b3480156101c857600080fd5b506101d161030c565b6040518082815260200191505060405180910390f35b61020560048036038101908080359060200190929190505050610312565b005b34801561021357600080fd5b5061021c61055a565b005b34801561022a57600080fd5b50610233610773565b005b34801561024157600080fd5b5061024a61093a565b6040518082815260200191505060405180910390f35b34801561026c57600080fd5b50610275610940565b6040518082815260200191505060405180910390f35b34801561029757600080fd5b506102a0610946565b6040518082815260200191505060405180910390f35b600760009054906101000a900460ff1681565b6000809054906101000a900473ffffffffffffffffffffffffffffffffffffffff1681565b60016020528060005260406000206000915090505481565b60045481565b60035481565b6000600654421015156103b3576040517f08c379a00000000000000000000000000000000000000000000000000000000081526004018080602001828103825260228152602001807f43616d706169676e20646561646c696e6520686173206265656e20726561636881526020017f656400000000000000000000000000000000000000000000000000000000000081525060400191505060405180910390fd5b6000600160003373ffffffffffffffffffffffffffffffffffffffff1673ffffffffffffffffffffffffffffffffffffffff1681526020019081526020016000205414151561046a576040517f08c379a00000000000000000000000000000000000000000000000000000000081526004018080602001828103825260188152602001807f596f75206861766520616c726561647920706c6564676564000000000000000081525060200191505060405180910390fd5b600354341415156104e3576040517f08c379a000000000000000000000000000000000000000000000000000000000815260040180806020018281038252601a8152602001807f506c6564676520616d6f756e7420697320696e636f727265637400000000000081525060200191505060405180910390fd5b60646004548115156104f157fe5b0482019050808201600160003373ffffffffffffffffffffffffffffffffffffffff1673ffffffffffffffffffffffffffffffffffffffff1681526020019081526020016000206000828254019250508190555060016005600082825401925050819055505050565b6000809054906101000a900473ffffffffffffffffffffffffffffffffffffffff1673ffffffffffffffffffffffffffffffffffffffff163373ffffffffffffffffffffffffffffffffffffffff1614151561061e576040517f08c379a000000000000000000000000000000000000000000000000000000000815260040180806020018281038252601f8152602001807f4f6e6c792074686520656e7472657072656e6575722063616e20636c61696d0081525060200191505060405180910390fd5b6002546005541015151561069a576040517f08c379a000000000000000000000000000000000000000000000000000000000815260040180806020018281038252601e8152602001807f43616d706169676e20686173206e6f742073756363656564656420796574000081525060200191505060405180910390fd5b60065442111515610713576040517f08c379a000000000000000000000000000000000000000000000000000000000815260040180806020018281038252601c8152602001807f5468652063616d706169676e206973206e6f74206f766572207965740000000081525060200191505060405180910390fd5b3373ffffffffffffffffffffffffffffffffffffffff166108fc3073ffffffffffffffffffffffffffffffffffffffff16319081150290604051600060405180830381858888f19350505050158015610770573d6000803e3d6000fd5b50565b6000600654421115156107ee576040517f08c379a00000000000000000000000000000000000000000000000000000000081526004018080602001828103825260188152602001807f5468652063616d706169676e206973206e6f74206f766572000000000000000081525060200191505060405180910390fd5b600254600554101515610869576040517f08c379a00000000000000000000000000000000000000000000000000000000081526004018080602001828103825260198152602001807f5468652063616d706169676e20646964206e6f74206661696c0000000000000081525060200191505060405180910390fd5b600160003373ffffffffffffffffffffffffffffffffffffffff1673ffffffffffffffffffffffffffffffffffffffff1681526020019081526020016000205490506000600160003373ffffffffffffffffffffffffffffffffffffffff1673ffffffffffffffffffffffffffffffffffffffff168152602001908152602001600020819055503373ffffffffffffffffffffffffffffffffffffffff166108fc829081150290604051600060405180830381858888f19350505050158015610936573d6000803e3d6000fd5b5050565b60055481565b60065481565b600254815600a165627a7a72305820acc61528b68f96793ca8f2522a2c9b4c37576dd2607f601e10c9b3ac31e75c0a0029",
  "source": "pragma solidity ^0.4.2;\n\ncontract DominantAssuranceContract {\n    address public entrepreneur;\n    mapping(address => uint256) public pledgerBalance;\n    uint256 public pledgeCountGoal;\n    uint256 public pledgeAmount;\n    uint256 public refundPercentage;\n    uint256 public pledgeCount;\n    uint256 public pledgeDeadline;\n    bool public active;\n\n    //constructor\n    constructor (uint256 _pledgeCountGoal, uint256 _pledgeAmount, uint256 _refundPercentage, uint256 _campaignLength) public {\n        entrepreneur = msg.sender;\n        active = true;\n        pledgeAmount = _pledgeAmount;\n        pledgeCountGoal = _pledgeCountGoal;\n        refundPercentage = _refundPercentage;\n        pledgeDeadline = now + (_campaignLength * 1 minutes);\n    }\n\n\n    //pledge\n    function pledge (uint256 amount) public payable {\n        require(now < pledgeDeadline, \"Campaign deadline has been reached\");\n        require(pledgerBalance[msg.sender] == 0, \"You have already pledged\");\n        require(msg.value == pledgeAmount, \"Pledge amount is incorrect\");\n\n\n        uint256 addPayoff = amount + (refundPercentage / 100); // check integer division rules\n\n        pledgerBalance[msg.sender] += amount + addPayoff;\n        pledgeCount += 1;\n    }\n\n\n    function claimFunds() public {\n        require(msg.sender == entrepreneur, \"Only the entrepreneur can claim\");\n        require(pledgeCount >= pledgeCountGoal, \"Campaign has not succeeded yet\");\n        require(now > pledgeDeadline, \"The campaign is not over yet\");\n\n        msg.sender.transfer(address(this).balance);\n\n    }\n\n    function getRefund() public {\n        require(now > pledgeDeadline, \"The campaign is not over\");\n        require(pledgeCount < pledgeCountGoal, \"The campaign did not fail\");\n\n        uint256 amount = pledgerBalance[msg.sender];\n        pledgerBalance[msg.sender] = 0;\n        msg.sender.transfer(amount);\n    }\n}\n\n",
  "sourcePath": "/home/jim/Documents/Programming/Provide/contracts/DominantAssuranceContract.sol",
  "compiler": {
    "name": "solc",
    "version": "0.4.24+commit.e67f0147.Emscripten.clang"
  },
  "schemaVersion": "2.0.0",
  "updatedAt": "2018-07-06T13:06:35.720Z"
}